:020000040800F2
:100000007008002005020008150600080D0600080B
:1000100011060008C9040008F506000800000000E9
:10002000000000000000000000000000450600087D
:10003000CD0400080000000019060008750600083D
:100040001F0200081F0200081F0200081F0200080C
:100050001F0200081F0200081F0200081F020008FC
:100060001F0200081F0200081F0200081F020008EC
:100070001F0200081F0200081F0200081F020008DC
:100080001F0200081F020008000000001F020008F5
:100090001F0200081F0200081F0200081F020008BC
:1000A0001F0200081F0200081F0200081F020008AC
:1000B0001F020008000000001F02000800000000EE
:1000C0001F020008000000001F0200081F020008B5
:1000D0001F0200081F0200081F02000800000000A5
:1000E00000000000000000001F0200081F020008BE
:1000F0001F0200081F0200081F0200081F0200085C
:100100001F02000800000000000000001F0200089D
:1001100000000000000000000000000000000000DF
:1001200000000000000000000000000000000000CF
:1001300000000000000000000000000000000000BF
:1001400000000000000000000000000000000000AF
:1001500000000000000000001F0200081F0200084D
:100160001F0200081F02000800F002F800F03AF831
:100170000AA090E8000C82448344AAF10107DA4502
:1001800001D100F02FF8AFF2090EBAE80F0013F01A
:10019000010F18BFFB1A43F001031847B007000016
:1001A000D0070000103A24BF78C878C1FAD85207A7
:1001B00024BF30C830C144BF04680C6070470000E1
:1001C0000023002400250026103A28BF78C1FBD860
:1001D000520728BF30C148BF0B6070471FB51FBD15
:1001E00010B510BD00F031F81146FFF7F7FF00F031
:1001F000F3FA00F04FF803B4FFF7F2FF03BC00F08E
:1002000057F800000948804709480047FEE7FEE725
:10021000FEE7FEE7FEE7FEE7FEE7FEE7FEE7FEE7B6
:1002200004480549054A064B704700007D06000852
:100230006901000870000020700800207004002090
:1002400070040020704770477047754600F02CF826
:10025000AE4605006946534620F00700854618B0B3
:1002600020B5FFF7DDFFBDE820404FF000064FF05E
:1002700000074FF000084FF0000BAC46ACE8C00997
:10028000ACE8C009ACE8C009ACE8C00921F007013E
:100290008D46704710B50446AFF300802046BDE898
:1002A0001040FFF7A8BF000000487047080000207A
:1002B00001491820ABBEFEE726000200704700008F
:1002C00010B540F20044C4F6000420464FF400414B
:1002D00000F032FA20464FF4804100F02BFA20461D
:1002E0004FF4005100F026FA4FF090404FF4806137
:1002F00000F020FA4FF090404FF4007100F01AFA2D
:100300004FF090404FF4807100F016FA10BD0000DD
:1003100010B540F20044C4F6000420464FF40041FA
:1003200000F008FA20464FF4804100F005FA20461C
:100330004FF4005100F000FA4FF090404FF480610C
:1003400000F0F8F94FF090404FF4007100F0F2F92E
:100350004FF090404FF4807100F0ECF910BD0000B8
:1003600010B540F20044C4F6000420464FF40041AA
:1003700000F0E0F920464FF4804100F0DDF920461E
:100380004FF4005100F0D6F94FF090404FF48061E7
:1003900000F0D0F94FF090404FF4007100F0CCF92C
:1003A0004FF090404FF4807100F0C4F910BD000090
:1003B00010B540F20044C4F6000420464FF400415A
:1003C00000F0B8F920464FF4804100F0B3F9204620
:1003D0004FF4005100F0AEF94FF090404FF48061BF
:1003E00000F0AAF94FF090404FF4007100F0A4F92A
:1003F0004FF090404FF4807100F09CF910BD000068
:1004000010B540F20044C4F6000420464FF4004109
:1004100000F092F920464FF4804100F08BF920461D
:100420004FF4005100F086F94FF090404FF4806196
:1004300000F082F94FF090404FF4007100F07AF92B
:100440004FF090404FF4807100F074F910BD00003F
:1004500010B540F20044C4F6000420464FF40041B9
:1004600000F068F920464FF4804100F063F920461F
:100470004FF4005100F060F94FF090404FF480616C
:1004800000F058F94FF090404FF4007100F052F92D
:100490004FF090404FF4807100F04EF910BD000015
:1004A00080B540F20040C4F600004FF4007100F047
:1004B00041F980BD80B540F20040C4F600004FF421
:1004C000007100F039F980BDFEE7000070470000C0
:1004D00010B540F2115000F0CDF940F2125000F08A
:1004E000C9F940F2135000F0C5F940F2165000F07F
:1004F000C1F940F20044C4F6000420460121002264
:10050000182300F01BF9204600210022182300F0D8
:100510003FF92046012100224FF4007300F00EF94C
:100520002046002100224FF4007300F031F92046EC
:10053000012100224FF4004300F000F92046012180
:1005400000224FF4804300F0F9F8204601210022F8
:100550004FF4005300F0F2F84FF0904001210022D8
:100560004FF4806300F0EAF84FF090400121002240
:100570004FF4007300F0E2F84FF0904001210022A8
:100580004FF4807300F0DAF82046002100224FF487
:10059000004300F0FDF82046002100224FF4804384
:1005A00000F0F6F82046002100224FF4005300F03E
:1005B000EFF84FF09040002100224FF4806300F0EC
:1005C000E7F84FF09040002100224FF4007300F054
:1005D000DFF84FF09040002100224FF4807300F0CC
:1005E000D7F810BD80B540F20040C4F600000821E5
:1005F00000F0A0F880BD000080B540F20040C4F6D5
:100600000000082100F098F880BD0000FEE700001F
:10061000FEE70000704700007047000080B540F220
:100620000040C4F60000102100F084F880BD0000F6
:1006300080B540F20040C4F60000102100F07CF8C4
:1006400080BD000070470000B0B501380024B4EB55
:10065000106F1CBF0120B0BD4EF21005CEF2000598
:1006600068600F2000F048F80720AC602860204642
:10067000B0BD000080B500F051F880BD80B541F2FA
:100680000400C4F2020050F8041C41F0010140F8DB
:10069000041C00BF50F8041C8907FBD501680C221C
:1006A000C0F6FF021140016001684FF6FF72CFF201
:1006B000C0721140016001684FF6FF7221F44001E1
:1006C000016050F8041CCFF6F262114040F8041C9F
:1006D000816A40F2431221F00F018162C16A9143A5
:1006E000C162016B21F0010101630021416000F052
:1006F00013F980BDFEE700004EF623510001CEF253
:10070000000108707047000040F26C01C2F2000165
:10071000086000BF08680028FCD1704740F26C00F8
:10072000C2F200000168002908BF70470168013962
:100730000160704781627047816170472DE9F04127
:10074000D0F800E0D0F80CC000244FF003080026D9
:1007500005E000BF0136102E04F1020412D023FA86
:1007600006F7FF07F6D008FA04F72EEA070E01FA9B
:1007700004F54EEA050E2CEA070702FA04F547EAEB
:10078000050CE7E7C0F800E0C0F80CC0BDE8F08158
:10079000B0B50129416814BF994319434160D0F8AD
:1007A00008C000214FF0030E002404E00134102C97
:1007B00001F102010CD023FA04F5ED07F6D00EFA90
:1007C00001F52CEA050C02FA01F54CEA050CEDE7FF
:1007D000C0F808C0B0BD000000F0A2F8FFF778FE36
:1007E00040F26804C2F2000401202070FFF768FDA7
:1007F000FFF71EFFFFF7F6FEFFF75CFE20780028EC
:1008000018BF4FF4FA70FFF77FFFFFF721FE207843
:10081000002818BF4FF4FA70FFF776FFFFF778FD56
:100820002078002818BF4FF4FA70FFF76DFFFFF72C
:1008300097FDFFF7F3FEFFF7DFFEFFF731FE2078AD
:10084000002818BF4FF4FA70FFF75EFFFFF7B0FD06
:100850002078002818BF4FF4FA70FFF755FFFFF714
:10086000CFFD2078002818BF4FF4FA70FFF74CFF37
:10087000BCE7000041F2000300F01F018009C4F250
:1008800002034FF0010CC2580CFA01F11143C150A0
:100890007047000041F20400C4F2020050F8041C4A
:1008A00041F4803140F8041C40F2FF7150F8043CE0
:1008B0004A1E8A4203D213F400311146F6D050F892
:1008C000041C890358BF704701684FF6FF7201602E
:1008D0000168C7F2C27201600168016001681140DD
:1008E0000160016841F4E811016050F8041C41F016
:1008F000807140F8041C00BF50F8041C8901FBD52E
:10090000016821F003010160016841F0020101600A
:1009100001680907FCD5704780B5FFF7BBFF80BDB4
:1009200080B540F20000C2F2000000684DF683611D
:10093000C4F21B31A0FB0101880CFFF785FE00B15A
:10094000FEE70020FFF7D8FE80BD00006C0900081C
:100950000000002004000000A40100087009000845
:100960000800002068080000C001000800A24A0436
:0400000508000205E8
:00000001FF
